$
:020000040022D8
:2000000010B581B06B4800F0D3F800236A490B606A490B6000F03EFB01F02AF9002803D0E5
:2000200001236748037001E000F082FD00F075FF01F0F2FC002363490B6063480378012165
:200040000B43037001F0FAFC604908705E490B78802213400B7000235D490B800D28ECD0F8
:200060000A28EAD05B4C3A2805D100F0DBF8002800D18CE030E04C2805D100F067F90028BB
:2000800000D184E028E04D2804D100F0D5F900287DD021E04E2804D100F07FF9002876D084
:2000A0001AE0CE2804D100F0F2F900286FD013E05E2804D100F04DFA002868D00CE0E5285B
:2000C00004D100F07DFA002861D005E057285ED180233D480370B0E737480368002B07D1D9
:2000E0003B480388002B03D03B4803683248036000F084FA00284AD000F0DDFB002846D073
:20010000324908783A2801D040280DD168460330012100F0EEFA002839D06A46D0782F4AEE
:20012000117843181B0632D128490878572807D157232370201C0022012101F097FC7CE7FB
:200140003A2801D12E23F4E74C2805D124484C23C37001220621F0E7CE2803D05E2801D0A6
:20016000E5280BD11E4CE070FF232371201C0122062101F07BFCFC2323715EE74D2800D1FA
:200180005BE7CC2800D158E7ED2800D155E71549087858302070201C0022012101F066FC2E
:2001A0000022D0430123111C00F06AFC01B010BD1AE0C046641F2200681F22006C1F2200EA
:2001C000A21F2200701F2200A31F2200A41F22009C1F2200A51F2200741F2200A61F220063
:2001E000A71F2200AD1F22008546F7467047011C0020AC4B99420BD9AB4A8B1AAB4A934213
:2002000006D3052212058B1A01221205934206D2002904D04A1C02D0CB0700D50120000638
:20022000000E7047F0B5A24C201C042100F061FA002800D181E09F4E9F4D21786278A778F5
:20024000E0785318FB18C3182B709C4B198012023A439B4B1A60002871D0022816D1002A3D
:200260006BD1022969D1201C00F043FA002864D02178627853182878C01828700B0310010B
:200280001843306000238D48038058E0042818D1002A52D1022950D1201C00F02AFA00289A
:2002A00005D16078217843182878C018287020780306607800041843306000237F490B80AE
:2002C0003DE005281AD1002A37D1042935D1201C00F00FFA002830D021786278A778E0783D
:2002E0005318FB18C3182C78E4182C700B06110419433B02194301433160C3E701281CD1B9
:200300000A431AD1201C012100F0F3F9002814D02378FF2B11D100F0E0FA00280DD0694838
:200320002E2303700022012101F0A0FB0022D0430123111C00F0A4FB01E0002005E0604886
:20034000036831685B1803600120F0BD30B501F07DFBFC2805D101F079FB584908800428F3
:2003600001D2002018E0564C01F070FB051C256001F06CFB03021D43256001F067FB030452
:200380001D43256001F062FB0006284320604B480388043B0380012030BD70B500F09DFA9F
:2003A000002809D001F052FBFC2805D101F04EFB42490880042801D000203CE0404C01F001
:2003C00045FB061C266001F041FB03021E43266001F03CFB03041E43266001F037FB0006DD
:2003E00030432060384839490B78C3700122062101F03CFB36480568FF2000062B1A01206A
:20040000000683420ED333482B1A01200005834202D2304B9D4205D86868FFF7E8FE0028A6
:2004200000D0256023685A682260281C0123002100F026FB012070BD30B500F04EFA00286B
:2004400007D001F003FBFC2803D101F0FFFA052801D000201AE01A4C01F0F8FA051C2560ED
:2004600001F0F4FA03021D43256001F0EFFA03041D43256001F0EAFA03061D43256001F039
:20048000E5FA011C281C00F07FFA012030BD30B5114C01F0DBFAFF2820D02378002B54D19B
:2004A000012051E0FFFF0F0001002000FEDF0100AE1F22006C1F2200A61F22009C1F22007E
:2004C000741F2200A51F2200A71F2200A41F2200681F220000005000AD1F220001F0B6FA2C
:2004E000042804D02378002B2FD102202CE05E4D01F0ACFA041C2C6001F0A8FA03021C4323
:200500002C6001F0A3FA03041C432C6001F09EFA03061C432C60554B9C4201D1544C2C60D6
:200520005348231A01200005834206D20020514B0021195401300B28F9DB201C002100F051
:2005400071FA002801D002E02070002000E0012030BD30B501F07AFAFF282DD101F076FAE7
:20056000042829D1404D01F071FA041C2C6001F06DFA03021C432C6001F068FA03041C43BF
:200580002C6001F063FA03061C432C600020230B1B038100384A5158090B09038B4202D1B5
:2005A000344B0021195401300B28F0DB201C012100F038FA002801D1002000E0012030BD77
:2005C00000B501F043FAFF2814D101F03FFA012810D12A480378002B06D001F037FA00F0F8
:2005E00049FE002806D007E001F030FA00F0A7FA002801D1002000E0012000BD00B581B065
:2006000029E01F4803784C2B04D101F01FFA6946C87006E068460330012100F06AF800284F
:200620000BD06A46D178174803785B1803700E4A106800F0F8F8002801D1002010E00A481A
:2006400003680133036010480388013B03800F480368013303600C480388002BD1D10120D0
:2006600001B000BD14E0C046741F2200EFEEBEFC00005000B21F2200B81A2200A21F2200AC
:20068000A41F2200A61F22009C1F2200701F2200004770470020A04A107001239F4A1370E8
:2006A0009F4BA04A1380A04940230B7030234B7031238B709D490E230B7004234B70012317
:2006C0008B70FC230B714871011C994B585401310B29FADB974908709749087097490870DB
:2006E000974908600021CB4396490B6096490870704770B5051C0E1C30E001F0A7F9031CFB
:20070000303B0A2B01D230210AE0031C413B062B01D2372104E0031C613B062B17D2572103
:20072000401A0407240E01F091F9031C303B0A2B01D230210DE0031C413B062B01D23721E0
:2007400007E0031C613B062B01D2572101E0002007E0431A1C432C700135013E002ECCD1FB
:20076000012070BD30B5002406E0035D0D5DAB4201D0002003E001349442F6DB012030BDC7
:2007800010B5002416E06B490B786D4908682018002B06D06D4B195D00F070FD002806D05B
:2007A00007E06A4B195D00F0D6F9002801D1002005E00134634803689C42E4DB012010BD93
:2007C000F0B5604E5E4B1A68002A03D1021C1A60002333603568002D23DB032D21D05B4FBC
:2007E00079550024AB1898420ED16A1C5849381CFFF7B8FF002806D16A1C5649381CFFF7F5
:20080000B1FF002800D00124200603D0691C3160012007E0002D01DDFFF7B2FF0021C94315
:2008200031600020F0BD30B5041C0D1CFF200006231A01200006834215D201233E4A1370C8
:20084000201CFFF7BDFF002801D0012032E0394A1378291C201C002B02D000F00FFD29E0ED
:2008600000F079F926E005200005231A01200005834219D2012330490B7000208300364999
:20088000C9588C4208D1354B195C8D4204D1284B01211954081C0DE001300B28EEDB291C72
:2008A000201C00F05DFB05E0257023780020AB4200D1012030BD10B5002400F075F9002844
:2008C00008D000F0D9FC002804D000F099FB002800D001242006000E10BD30B50024144D73
:2008E0002B5D002B08D01D4B195DA0001A4A105800F036FB00280CD000232B5501340B2CEF
:20090000EDDB00F07DFB002803D0FFF739FF002826D1002037E0C046AD1F2200A31F220050
:20092000204E00009E1F2200BD1F2200A71F2200B21F2200A21F2200C01F2200A01F2200CC
:20094000781F22007C1F2200A11F2200C11F2200B01A2200B31A2200B81A2200E41A22004E
:20096000002400F021F9002804D000F085FC002800D001242406240E62480378002B01D042
:2009800000F082FC201C30BD10B5C1B00C1CFF2109060E236A461370FB2C2FD8231D53709E
:2009A000012393704D23D370FC2301AA137000235370431A01221206934211D25148191C0C
:2009C0000378221C68460630002B04D000F058FC002813D01EE000F01CF900280ED019E02A
:2009E00005210905431A11118B4209D2221C011C6846063000F042FB00280BD100200FE01D
:200A0000002105E06A468A180378013093710131A142F7D3A11D6846012201F027F801202F
:200A200041B010BD00B5384A831A01221206934215D20023354A1360DB43354A1360314A8D
:200A40001378002B04D0304A801A00F01BFC16E0002913D10120C00300F0F8F80FE0052214
:200A60001205831A01221205934207D2002902D000F039FB03E000F02CFB00E0002000BD04
:200A800000B57D20C0010138FDD1002B00D11A1C20490B68222083430B6001201043FFF751
:200AA000E1FD00BD00B51C4B1C4803601C480378002B03D01B4B1C48038012E01A490888A9
:200AC0000138088000040CD11848582303700022012100F0CBFF0022D0430123111CFFF7AC
:200AE000CFFF00BD30B5051C002408E0002101317D231B019942FAD3FFF7D4FF0134AC42B6
:200B0000F4D330BDA21F2200000000FF781F22007C1F2200200436000024F4000090320095
:200B2000A31F2200204E00009E1F2200A51F220000B500F0CEF800235F490B7000BD00B57B
:200B400081B000F0DBF8684603300122002100F060F801B000BDF0B5061C0F1C564C574D8E
:200B60002078002809D0296843189E4206D000F01BF8002812D0002020702E6021784B1CEF
:200B8000237020784E4B5F5429684318190701D0062807D100F008F8002801D1002002E00F
:200BA000002323700120F0BD10B583B042480178002901D1012017E0404A1068020A02ACE7
:200BC000A270E07001230193A0200090A21C3C48022300F0D6F8032801D1002004E0002362
:200BE00035490B7000F002F803B010BD10B5002406E001347D231B019C4201D1002007E01B
:200C0000A0220221002000F04EF90328F1D0012010BD30B581B0041C151C080A6A46907095
:200C2000D170A02268460230022100F03CF9012809D1A022291C201C00F040F9012802D11E
:200C40000006000E00E0002001B030BD30B581B0051CFF210020FFF77EFF012427E0201C90
:200C600001340021FFF777FF00280ED0630602D1144B15480380A30519D16846013001229D
:200C80000021FFF7C6FF002801D1002012E068464378002B0DD0FF2369464B7001238B7050
:200CA000CE23CB70481C0122032100F0DFFEAC42D5D3012001B030BDA11F2200881F220090
:200CC000C51F2200204E00009E1F22000138FDD270477F490B68772083430B607D490B68C6
:200CE0007D4803407D481843086000237C490B607C490B7010237C490B7070477A490B7861
:200D000030229343184308707047754A13681906090E0220084019D0002313604B0701D5A0
:200D2000032013E071480378002B0ED0002008E06F490B6881006F4A895C1954013000066A
:200D4000000E6A490B789842F2D30120704710B5002404E00134630701D1FFF7A3FEFFF70D
:200D6000D4FF0028F6D010BD00B55D480368DB0706D5FFF7ECFF60490870012359490B7020
:200D800000BDF0B583B002900C1C151C1F1C09A800780990FFF7E8FF38E0082109980128EE
:200DA00003D10823D91B0906090E8C4201D22106090E0E1C0998019008A8007800903B1CD0
:200DC0002A1C029800F027F8FFF7C1FF0006000E01281ED1029880190290A41B2404240C66
:200DE000391C13D0FF310906090E6A5C92196A546A5CB24208D309E0FF310906090E6A5C9C
:200E000001326A54120601D10029F5D1002CC4D1012003B0F0BDF0B581B01C1C374ED92337
:200E20009B030025B56006AD2D781D60002C0BD0002707E0BB00324D5D19D35D2B7001373D
:200E40003F063F0EA742F5D307AA1278002A0DD1274A1060254A11700D1C0120002C19D0DC
:200E60002B011C4325062D0E032013E000271F4A177065182D062D0E09E03B199B00204A27
:200E800002B4C15D995402BC01373F063F0E8F42F3D3002014490B78184335607060012091
:200EA000B06001B0F0BD00B582B001230193009200231A1CFFF765FF02B000BD00B582B08A
:200EC0000023019300921A1CFFF75BFF02B000BD8C00320074003200FFFFC0C000000A0ADE
:200EE0001C403600CB1F2200CC1F2200CD1F22008C1F220030413600CE1F2200144036002C
:200F00003040360010B5002083009E4A9E4CE158D15001300B28F7D310BD10B500209B4BD1
:200F20000021195401302028F9D3002096498300974ACA50934A964CD45001300B28F5D352
:200F40000B6801330B600023924A137000F072FC914A1060914A1068106800F02DFD10BDA2
:200F600030B58C4D8E4A1368013313602A78002A05D08C4B1C681319984203D00FE0041CD5
:200F8000884A14602878431C2B702A78864B19541319180503D0FF2301339A4203D100F07F
:200FA0002FF8002800D0012030BD70B5051C0E1C93009C1A01E0013C08D07C490B681B07FB
:200FC000F9D4052400F074FA002803D1002005E0013CFBD02B689E42FAD1012070BD70B503
:200FE000051C0E1C724C00F06DFA25606660A3681B07FCD46422311C281CFFF7D6FF70BD3A
:2010000030B582B001246B490868013008606A4B984201D1FFF776FF5E480378002B27D0C8
:20102000604908685C4A1168431A190BCA08202A1DD2564B4907490F01258D40995C294052
:2010400003D100F050F8002812D00023009355480368019305E001A9684600F073F8002868
:201060000AD0009B4B4908788342F4D300E00024002348490B70201C02B030BDF0B581B077
:20108000071C0E1C151C4D4A00923F4CE3680133E36000F00DFA002802D10006000E16E060
:2010A000A66247480368236205200005037863620AE0FF352D062D0E3078013638700137F4
:2010C0000099087001310091002DF2D1012001B0F0BD3B483B4981603B4B036043685B07EF
:2010E000FCD40120704710B538490B6801330B6003051B0DC01A05210905431A190B8B1096
:201100005B0F5B18DC10202C01D3002019E02C4AFF231B03184050612D4B13602D4B136038
:2011200053685B07FCD419488B105A0F5318DA10D300C91A0122131C8B40015D1943015525
:20114000101C10BDF0B582B0061C0F1C224803680133036038688508AD002B1D1C1A240486
:20116000240C31680B4A12786318934202D9531A1C04240C854231D1042C2FD10A4B5958E0
:2011800046E0C0469C1C22006C1C2200CF1F220000000080A01F2200901F220068052000D0
:2011A000701C2200941F2200EF1F22002040400018404000741C220002000080D01C220002
:2011C000004040003040C1000CBE2000801C22000DBE200003BE2000841C22006946281C35
:2011E00000F025F8002818D000200EE03B689B079B0FC1186B46326882180192194A02B46B
:201200000299525C02BC5A540130A042EED30099281CFFF7E4FE002801D1002005E03368F6
:201220001B1933602B1D3B60012002B0F0BD30B50022151C0C4C23680133236004680C60DA
:201240000368A34201D1013202E01C1C0C6000220135064B9D4201D1002002E0642AEFD307
:20126000012030BDEF1F2200881C2200C0270900002070470120704701207047002070471C
:2012800000207047002070470120704776490B6803430B60704774490B6883430B60704716
:2012A000724A1168890889000143116070476F4A1168F02399430301F02018400143116031
:2012C00070476A48006869480068704767480068664800687047654A1168654B194003064F
:2012E0000720000618400143116070475F4A1168604B194003070320000718400143116096
:2013000070475D4A1168C908C90043075B0F194311607047584A11680909090103011807CA
:20132000000F01431160704710B5544C2268544B1A4083049B0C5348084000041843024395
:20134000226010BD504A10604B015B09536070474E4A1060516070474D4A1060516070473B
:2013600003061B0E4B490B60704703061B0E4A490B60704783079B0F48490B607047484A25
:2013800011680903090B030519431160704720B50568954399400D43056020BD00B50120CD
:2013A000C004FFF778FF00BD2F4A11680909090101431160704710B53A4C002902D02060FF
:2013C000002006E020680138206001D0002000E0012010BD00B500F0BFFAFFF7DFFF32495A
:2013E0000B681B0313D40B20FFF7DEFF2F480121FFF7E1FF05E02D480021FFF7DCFF002894
:2014000003D129490B681B03F5D50D2000E00020FFF7CAFF24490B680120C004034098425D
:2014200001D0002000E0012000BD00B50820FFF7BBFF1E480121FFF7BEFF05E01B480021CC
:20144000FFF7B9FF002803D1174803689B07F5D10020FFF7A9FF14490B689B079B0F0020B6
:20146000002B00D1012000BD0040400008404000FFFFFFF8FFFFFFCF484040004C40400035
:2014800000C000C00000FF3F5040400058404000604040000C40400010404000204040004A
:2014A00018404000D01D220004404000C0D4010000B5FFF78FFF002803D00120FFF774FFAE
:2014C000012000BD00B5FFF785FF002806D00220FFF76AFF0020FFF74DFF012000BDF0B59B
:2014E000071C161C0924E443F31901200005834202D9201C093016E00D1C002E01D1201CA1
:2015000011E0FFF7D5FF002801D1A01D0BE0002006E0052109057918095C2970013501303E
:20152000B042F6D30020F0BDF0B5071C0924E443BB0702D0201C083029E00D1C161CB307E1
:2015400001D0E01D23E0F31901200005834202D9201C09301BE0002E01D1201C17E0FFF74F
:20156000A7FF002801D1A01D11E000200CE0052109057B18C15829700A0A6A700A0CAA707A
:20158000090EE97004350430B042F0D30020F0BDF0B581B000900924E443830702D0201C9A
:2015A000083040E00D1C171CBB0701D0E01D3AE000983B18012109058B4202D9201C093095
:2015C00031E0002F01D1201C2DE0FFF77BFF002801D1601D27E0002622E0009973185E49CF
:2015E0000B6069780B0229781943AA7813041943EA78130619435948016059480121FFF76E
:20160000DAFE07E056480021FFF7D5FE002801D0E01C08E0534803681B07F3D40435043644
:20162000BE42DAD3002001B0F0BD00B5FFF7D2FE002803D00320FFF7B7FE012000BD30B578
:20164000051C0721CC432B0501D0201C1FE001231B059D4201D9E01D19E0FFF7E6FF002800
:2016600001D1A01C13E0404A15603D480121FFF7A2FE07E03A480021FFF79DFE002801D099
:20168000601C04E03949086804210840F2D130BD30B5002902D10920C0430DE0041C0D199B
:2016A00007E0201CFFF7CBFF002805D101231B03E418AC42F5D3002030BD00B5FFF78AFE15
:2016C000002802D10820C04315E00C20FFF76CFE23480121FFF76FFE08E021480021FFF70B
:2016E0006AFE002802D00621C84304E01F49086804210840F1D100BD00B5FFF749FF002893
:2017000001D0002000E0012000BD00B5FFF70CFF002801D0002000E0012000BD00B5FFF7E2
:20172000B7FF002801D0002000E0012000BD0B180020012109038B4201D90021C843704721
:2017400070B50E1C141C211C051CFFF7F0FF00280ED000241BE0C046184040001C40400068
:20176000C0D401002040400014404000044040001020FFF78BFD221C311C281CFFF708FFA2
:201780000024002800D101241020FFF784FD201C70BD70B50E1C141C211C051CFFF7C7FF5E
:2017A000002801D000240EE01020FFF76FFD221C311C281CFFF793FE0024002800D10124F4
:2017C0001020FFF768FD201C70BD70B50E1C141C211C051CFFF7ABFF002801D000240EE08D
:2017E0002020FFF753FD221C311C281CFFF777FE0024002800D101242020FFF74CFD201C2C
:2018000070BD30B50D1C041CFFF791FF002801D000240DE01020FFF739FD291C201CFFF70A
:2018200037FF0024002800D101241020FFF733FD201C30BD052000057047F0B5052801D924
:20184000002088E0654CFF252D024C21414364484618FF223168201C0023FFF798FD082332
:201860002A1C7168201CFFF792FD10232A02B168201CFFF78CFD18232A04F168201CFFF761
:2018800086FD584A3169201D0023FFF780FD1423554A7169201DFFF77AFD544AB169201C68
:2018A00008300023FFF773FD0C230F221203F169201C0830FFF76BFD10234D4A316A201C25
:2018C0000830FFF764FD494A716A201C0C300023FFF75DFD0C23474AB16A201C0C30FFF7D7
:2018E00056FD454AF16A201C10300023FFF74FFD424A316B201C14300023FFF748FD182389
:201900002A04716B201C1430FFF741FD0027FA43B16B201C18303B1CFFF739FD314AF16BAB
:20192000201C1C303B1CFFF732FD1023304A316C201C1C30FFF72BFD2C4A716C201C2030D4
:201940003B1CFFF724FDFF22B16C201C28303B1CFFF71DFD0120F0BD00B529490B68012057
:20196000C00403430B600B68082003430B6025490B6801210B4323490B600420FFF75DFF08
:2019800000BD00B582B0082269461F48FFF71DFF0098C30705D4C3051B0E1C4818431C4901
:2019A00008600198C30705D4C3051B0E174818431849086002B000BD10B50020FFF73DFF89
:2019C000041CFFF775FD204010BD00B5FFF72DFD00BD00B5FFF7F0FF00BDC04624404000BF
:2019E000F01A2200FFFF00000000F0FFFF0F00000000FF0F00F0FFFFFFFF0F00FFFFFF00BA
:201A0000B804320008404000040E0000000100000C4040001040400021490B68402003439E
:201A20000B600B68202003430B600B6802210B431B490B6000231B490B60704700B500F0D6
:201A400005F8012801D100F001F800BD10B5164C012316480360FFF725F80820A066A36E8A
:201A60001B07F8D423681806000E10BD10B50E4C0223A366A36E9B07FAD5002A07D00422FE
:201A800004E001390904090C0278013022600029F7D10220A066A36E9B07FAD510BDC0466B
:101AA00020043600300436001C0036002C043600BA
:020000040022D8
:201AB0000108000106000000C8005000E8105000E880500000E0530000F0530000E0570041
:201AD00000F0570000E0590000F0590000E05F0000F05F00434343010101010101010100CE
:201AF000020000000A0000001E0000001E000000600200005A0000002A00000001000000A7
:201B10003C0000003C0000000674010008D10100A0D501000100000000200000300400001D
:201B300032000000200000000700000004000000130000003C0000003C000000C0040000E9
:201B5000B3000000540000000200000077000000770000000CE802000FA2030040AB0300E6
:201B700002000000004000005F08000064000000400000000E0000000700000025000000CE
:201B900077000000770000008009000065010000A800000003000000EE000000EE000000D1
:201BB00018D005001E440700805607000300000000800000BE100000C80000008000000049
:201BD0001C0000000D00000049000000EE000000EE000000FF120000CA0200004F0100007A
:201BF00005000000DC010000DC01000030A00B003C880E00FFAC0E0005000000FFFF0000AD
:201C10007B21000090010000FF000000370000001A00000092000000FF000000FF000000A7
:201C3000FE250000940500009E0200000A000000B8030000B8030000FFFF0F00FFFF0F009E
:1C1C5000FE591D000A000000FEFF0100F642000020030000FE0100006E00000034
:00000001FF
